{
  "transactions": [
    {
      "hash": "0x42ccb8e091e85820c6dc35a2f3991ddb96bf03d9c93a9a0a43ad3c2d06e6ba96",
      "transactionType": "CALL",
      "contractName": null,
      "contractAddress": "0x6c14a010100cf5e0e1e67dd66ef7bbb3ea8b6d69",
      "function": "createGame((string,uint128,uint16,uint16,uint40,uint40,uint32,int32,int32,int32,int32,uint16,uint16,uint16,uint16,uint16),(uint32,uint32)[])",
      "arguments": [
        "(Chapultepec Hunt, 1000000000000000, 3, 20, 1771561020, 1771647420, 7200, 19420456, -99189554, 19421200, -99187800, 3500, 1500, 1000, 2000, 1000)",
        "[(0, 500), (1800, 300), (3600, 150), (5400, 50)]"
      ],
      "transaction": {
        "from": "0x964009f178c927e2a6f74733b66eaa82773cd8a8",
        "to": "0x6c14a010100cf5e0e1e67dd66ef7bbb3ea8b6d69",
        "gas": "0x56927",
        "value": "0x0",
        "input": "0x6566ac9300000000000000000000000000000000000000000000000000000000000000400000000000000000000000000000000000000000000000000000000000000280000000000000000000000000000000000000000000000000000000000000020000000000000000000000000000000000000000000000000000038d7ea4c6800000000000000000000000000000000000000000000000000000000000000000030000000000000000000000000000000000000000000000000000000000000014000000000000000000000000000000000000000000000000000000006997e03c00000000000000000000000000000000000000000000000000000000699931bc0000000000000000000000000000000000000000000000000000000000001c200000000000000000000000000000000000000000000000000000000001285528fffffffffffffffffffffffffffffffffffffffffffffffffffffffffa167cce0000000000000000000000000000000000000000000000000000000001285810fffffffffffffffffffffffffffffffffffffffffffffffffffffffffa1683a80000000000000000000000000000000000000000000000000000000000000dac00000000000000000000000000000000000000000000000000000000000005dc00000000000000000000000000000000000000000000000000000000000003e800000000000000000000000000000000000000000000000000000000000007d000000000000000000000000000000000000000000000000000000000000003e8000000000000000000000000000000000000000000000000000000000000001043686170756c74657065632048756e74000000000000000000000000000000000000000000000000000000000000000000000000000000000000000000000004000000000000000000000000000000000000000000000000000000000000000000000000000000000000000000000000000000000000000000000000000001f40000000000000000000000000000000000000000000000000000000000000708000000000000000000000000000000000000000000000000000000000000012c0000000000000000000000000000000000000000000000000000000000000e10000000000000000000000000000000000000000000000000000000000000009600000000000000000000000000000000000000000000000000000000000015180000000000000000000000000000000000000000000000000000000000000032",
        "nonce": "0xd0",
        "chainId": "0x14a34"
      },
      "additionalContracts": [],
      "isFixedGasLimit": false
    }
  ],
  "receipts": [
    {
      "status": "0x1",
      "cumulativeGasUsed": "0x4cb12",
      "logs": [
        {
          "address": "0x6c14a010100cf5e0e1e67dd66ef7bbb3ea8b6d69",
          "topics": [
            "0x62b7a00b0dc49ec11aa6a2b490734eef71187c817dea0522f63e2af42442775b",
            "0x0000000000000000000000000000000000000000000000000000000000000001"
          ],
          "data": "0x00000000000000000000000000000000000000000000000000000000000000e000000000000000000000000000000000000000000000000000038d7ea4c680000000000000000000000000000000000000000000000000000000000000000000000000000000000000000000000000000000000000000000000000000000000300000000000000000000000000000000000000000000000000000000000000140000000000000000000000000000000000000000000000000000000001285528fffffffffffffffffffffffffffffffffffffffffffffffffffffffffa167cce000000000000000000000000000000000000000000000000000000000000001043686170756c74657065632048756e7400000000000000000000000000000000",
          "blockHash": "0x0000000000000000000000000000000000000000000000000000000000000000",
          "blockNumber": "0x23da372",
          "blockTimestamp": "0x698ea5c4",
          "transactionHash": "0x42ccb8e091e85820c6dc35a2f3991ddb96bf03d9c93a9a0a43ad3c2d06e6ba96",
          "transactionIndex": "0x1",
          "logIndex": "0x0",
          "removed": false
        }
      ],
      "logsBloom": "0x00000000000000000000000000000001000000000000000000000000000000000000000000000000000000000000000000000000000000000000000000040000000000000000000000000000000000000000000000040000000000000000000000080000000000000000000000000000000000000000000000000000000000000000000000000000000000000000000000000000000000000000000000000000000000000000000000000004000000000000000000000000000000000000000000000000000000000000000000000000200000000008000000000000000040000000000000000000000100000000000000000000000000000000000000000000",
      "type": "0x2",
      "transactionHash": "0x42ccb8e091e85820c6dc35a2f3991ddb96bf03d9c93a9a0a43ad3c2d06e6ba96",
      "transactionIndex": "0x1",
      "blockHash": "0x0000000000000000000000000000000000000000000000000000000000000000",
      "blockNumber": "0x23da372",
      "gasUsed": "0x3ead4",
      "effectiveGasPrice": "0x2dc6c0",
      "blobGasUsed": "0x8592",
      "from": "0x964009f178c927e2a6f74733b66eaa82773cd8a8",
      "to": "0x6c14a010100cf5e0e1e67dd66ef7bbb3ea8b6d69",
      "contractAddress": null,
      "daFootprintGasScalar": "0x8b",
      "l1BaseFeeScalar": "0x44d",
      "l1BlobBaseFee": "0xc0f9b7f",
      "l1BlobBaseFeeScalar": "0xa118b",
      "l1Fee": "0x92c5883fc",
      "l1GasPrice": "0x58469017",
      "l1GasUsed": "0xf6d"
    }
  ],
  "libraries": [],
  "pending": [],
  "returns": {},
  "timestamp": 1770956227777,
  "chain": 84532,
  "commit": "d3e289c"
}