{
  "transactions": [
    {
      "hash": "0xe945b0d4e68f63f29cd7bef5a8d8d7a51e12926af0e6b3f7f79b7d24fe92f827",
      "transactionType": "CALL",
      "contractName": null,
      "contractAddress": "0x991a415b644e84a8a1f12944c6817bf2117e18d7",
      "function": "createGame((string,uint128,uint16,uint16,uint40,uint40,uint32,int32,int32,int32,int32,uint16,uint16,uint16,uint16,uint16),(uint32,uint32)[])",
      "arguments": [
        "(Chapultepec Hunt, 1000000000000000, 3, 20, 1771856866, 1771943266, 7200, 19420456, -99189554, 19421200, -99187800, 3500, 1500, 1000, 2000, 1000)",
        "[(0, 500), (1800, 300), (3600, 150), (5400, 50)]"
      ],
      "transaction": {
        "from": "0x964009f178c927e2a6f74733b66eaa82773cd8a8",
        "to": "0x991a415b644e84a8a1f12944c6817bf2117e18d7",
        "gas": "0x5ba72",
        "value": "0x0",
        "input": "0x6566ac9300000000000000000000000000000000000000000000000000000000000000400000000000000000000000000000000000000000000000000000000000000280000000000000000000000000000000000000000000000000000000000000020000000000000000000000000000000000000000000000000000038d7ea4c680000000000000000000000000000000000000000000000000000000000000000003000000000000000000000000000000000000000000000000000000000000001400000000000000000000000000000000000000000000000000000000699c63e200000000000000000000000000000000000000000000000000000000699db5620000000000000000000000000000000000000000000000000000000000001c200000000000000000000000000000000000000000000000000000000001285528fffffffffffffffffffffffffffffffffffffffffffffffffffffffffa167cce0000000000000000000000000000000000000000000000000000000001285810fffffffffffffffffffffffffffffffffffffffffffffffffffffffffa1683a80000000000000000000000000000000000000000000000000000000000000dac00000000000000000000000000000000000000000000000000000000000005dc00000000000000000000000000000000000000000000000000000000000003e800000000000000000000000000000000000000000000000000000000000007d000000000000000000000000000000000000000000000000000000000000003e8000000000000000000000000000000000000000000000000000000000000001043686170756c74657065632048756e74000000000000000000000000000000000000000000000000000000000000000000000000000000000000000000000004000000000000000000000000000000000000000000000000000000000000000000000000000000000000000000000000000000000000000000000000000001f40000000000000000000000000000000000000000000000000000000000000708000000000000000000000000000000000000000000000000000000000000012c0000000000000000000000000000000000000000000000000000000000000e10000000000000000000000000000000000000000000000000000000000000009600000000000000000000000000000000000000000000000000000000000015180000000000000000000000000000000000000000000000000000000000000032",
        "nonce": "0x115",
        "chainId": "0x14a34"
      },
      "additionalContracts": [],
      "isFixedGasLimit": false
    }
  ],
  "receipts": [
    {
      "status": "0x1",
      "cumulativeGasUsed": "0x193a7f",
      "logs": [
        {
          "address": "0x991a415b644e84a8a1f12944c6817bf2117e18d7",
          "topics": [
            "0x62b7a00b0dc49ec11aa6a2b490734eef71187c817dea0522f63e2af42442775b",
            "0x0000000000000000000000000000000000000000000000000000000000000001"
          ],
          "data": "0x00000000000000000000000000000000000000000000000000000000000000e000000000000000000000000000000000000000000000000000038d7ea4c680000000000000000000000000000000000000000000000000000000000000000000000000000000000000000000000000000000000000000000000000000000000300000000000000000000000000000000000000000000000000000000000000140000000000000000000000000000000000000000000000000000000001285528fffffffffffffffffffffffffffffffffffffffffffffffffffffffffa167cce000000000000000000000000000000000000000000000000000000000000001043686170756c74657065632048756e7400000000000000000000000000000000",
          "blockHash": "0xe02f1c5d49239cbbe8504f975b662c07ef6a19f5e9d2bcb005a21b513758243e",
          "blockNumber": "0x23fe545",
          "blockTimestamp": "0x6993296a",
          "transactionHash": "0xe945b0d4e68f63f29cd7bef5a8d8d7a51e12926af0e6b3f7f79b7d24fe92f827",
          "transactionIndex": "0xb",
          "logIndex": "0x15",
          "removed": false
        }
      ],
      "logsBloom": "0x00000000000000000000000000000001000000000000000000000000000000000000000000000000000000400000000000000000000000000000000000040000000000000000000000000000000000000000000000040000000000000000000000000000000000000000000000000000000000000000000000000000000000000000000000000000000000000000000000000000000000000000000000000000010000000000000000000004000000000000000000000000000000000000000000000000000000000000000000000000000000000008000000000000002040000000000000000000000000000000000000000000000000000000000000000000",
      "type": "0x2",
      "transactionHash": "0xe945b0d4e68f63f29cd7bef5a8d8d7a51e12926af0e6b3f7f79b7d24fe92f827",
      "transactionIndex": "0xb",
      "blockHash": "0xe02f1c5d49239cbbe8504f975b662c07ef6a19f5e9d2bcb005a21b513758243e",
      "blockNumber": "0x23fe545",
      "gasUsed": "0x3eab3",
      "effectiveGasPrice": "0x2dc6c0",
      "blobGasUsed": "0x861d",
      "from": "0x964009f178c927e2a6f74733b66eaa82773cd8a8",
      "to": "0x991a415b644e84a8a1f12944c6817bf2117e18d7",
      "contractAddress": null,
      "daFootprintGasScalar": "0x8b",
      "l1BaseFeeScalar": "0x44d",
      "l1BlobBaseFee": "0xd969d27",
      "l1BlobBaseFeeScalar": "0xa118b",
      "l1Fee": "0xd39617f23",
      "l1GasPrice": "0x10aebfbb9",
      "l1GasUsed": "0xf7a"
    }
  ],
  "libraries": [],
  "pending": [],
  "returns": {},
  "timestamp": 1771252074293,
  "chain": 84532,
  "commit": "5a3d082"
}