{
  "transactions": [
    {
      "hash": "0xaf0bc24aa95c1f2461efd7db8b0f892e5f9eb73d19cd447eedf84f58806a2d2d",
      "transactionType": "CALL",
      "contractName": null,
      "contractAddress": "0x0abfd376bd339a6dcd885f37ab0a9ce761c2f99e",
      "function": "createGame((string,uint128,uint16,uint16,uint40,uint40,uint32,int32,int32,int32,int32,uint16,uint16,uint16,uint16,uint16),(uint32,uint32)[])",
      "arguments": [
        "(Chapultepec Hunt, 1000000000000000, 3, 20, 1771346842, 1771433242, 7200, 19420456, -99189554, 19421200, -99187800, 3500, 1500, 1000, 2000, 1000)",
        "[(0, 500), (1800, 300), (3600, 150), (5400, 50)]"
      ],
      "transaction": {
        "from": "0x964009f178c927e2a6f74733b66eaa82773cd8a8",
        "to": "0x0abfd376bd339a6dcd885f37ab0a9ce761c2f99e",
        "gas": "0x5c134",
        "value": "0x0",
        "input": "0x6566ac9300000000000000000000000000000000000000000000000000000000000000400000000000000000000000000000000000000000000000000000000000000280000000000000000000000000000000000000000000000000000000000000020000000000000000000000000000000000000000000000000000038d7ea4c68000000000000000000000000000000000000000000000000000000000000000000300000000000000000000000000000000000000000000000000000000000000140000000000000000000000000000000000000000000000000000000069949b9a000000000000000000000000000000000000000000000000000000006995ed1a0000000000000000000000000000000000000000000000000000000000001c200000000000000000000000000000000000000000000000000000000001285528fffffffffffffffffffffffffffffffffffffffffffffffffffffffffa167cce0000000000000000000000000000000000000000000000000000000001285810fffffffffffffffffffffffffffffffffffffffffffffffffffffffffa1683a80000000000000000000000000000000000000000000000000000000000000dac00000000000000000000000000000000000000000000000000000000000005dc00000000000000000000000000000000000000000000000000000000000003e800000000000000000000000000000000000000000000000000000000000007d000000000000000000000000000000000000000000000000000000000000003e8000000000000000000000000000000000000000000000000000000000000001043686170756c74657065632048756e74000000000000000000000000000000000000000000000000000000000000000000000000000000000000000000000004000000000000000000000000000000000000000000000000000000000000000000000000000000000000000000000000000000000000000000000000000001f40000000000000000000000000000000000000000000000000000000000000708000000000000000000000000000000000000000000000000000000000000012c0000000000000000000000000000000000000000000000000000000000000e10000000000000000000000000000000000000000000000000000000000000009600000000000000000000000000000000000000000000000000000000000015180000000000000000000000000000000000000000000000000000000000000032",
        "nonce": "0xc",
        "chainId": "0x14a34"
      },
      "additionalContracts": [],
      "isFixedGasLimit": false
    }
  ],
  "receipts": [
    {
      "status": "0x1",
      "cumulativeGasUsed": "0x8d3719",
      "logs": [
        {
          "address": "0x0abfd376bd339a6dcd885f37ab0a9ce761c2f99e",
          "topics": [
            "0x4328820f6440d4b15c56b177f7e0e1b02c93a0e8e04cd33ef19385f5ddf5976e",
            "0x0000000000000000000000000000000000000000000000000000000000000001"
          ],
          "data": "0x00000000000000000000000000000000000000000000000000000000000000c000000000000000000000000000000000000000000000000000038d7ea4c68000000000000000000000000000000000000000000000000000000000000000000300000000000000000000000000000000000000000000000000000000000000140000000000000000000000000000000000000000000000000000000001285528fffffffffffffffffffffffffffffffffffffffffffffffffffffffffa167cce000000000000000000000000000000000000000000000000000000000000001043686170756c74657065632048756e7400000000000000000000000000000000",
          "blockHash": "0xc136d9208e1f34454f9732a8d6ec7f890d6fef2b12dd8115142b0638d1c29d5c",
          "blockNumber": "0x23c0121",
          "blockTimestamp": "0x698b6122",
          "transactionHash": "0xaf0bc24aa95c1f2461efd7db8b0f892e5f9eb73d19cd447eedf84f58806a2d2d",
          "transactionIndex": "0x9c",
          "logIndex": "0x13",
          "removed": false
        }
      ],
      "logsBloom": "0x00000000000000000000000000000000000100000000000000000000000008000000000000000000000000000000002000000000000000000000000000040000000000000000000000000000000000000000000000040000000000000000000000000000000000000000000000000000000000000000000000000000080000000000000000000000000000800000000000000000000000000000000000000000000000000000000000000000000000000000000000000000000000000000000000000000000000000000000000000000000000000000000000000000010040000000000000000000000000000000000000000000000000000000000000000000",
      "type": "0x2",
      "transactionHash": "0xaf0bc24aa95c1f2461efd7db8b0f892e5f9eb73d19cd447eedf84f58806a2d2d",
      "transactionIndex": "0x9c",
      "blockHash": "0xc136d9208e1f34454f9732a8d6ec7f890d6fef2b12dd8115142b0638d1c29d5c",
      "blockNumber": "0x23c0121",
      "gasUsed": "0x3ef52",
      "effectiveGasPrice": "0x62304",
      "blobGasUsed": "0x12828",
      "from": "0x964009f178c927e2a6f74733b66eaa82773cd8a8",
      "to": "0x0abfd376bd339a6dcd885f37ab0a9ce761c2f99e",
      "contractAddress": null,
      "daFootprintGasScalar": "0x138",
      "l1BaseFeeScalar": "0x44d",
      "l1BlobBaseFee": "0x3f5827e",
      "l1BlobBaseFeeScalar": "0xa118b",
      "l1Fee": "0x39b1c62ab",
      "l1GasPrice": "0x42e8f150",
      "l1GasUsed": "0xf37"
    }
  ],
  "libraries": [],
  "pending": [],
  "returns": {},
  "timestamp": 1770742050371,
  "chain": 84532,
  "commit": "8e9a18c"
}