{
  "transactions": [
    {
      "hash": "0xf07d7b44f52c4448f8496f13c59b62a34df3667ae86089808f0b4250f8a1f3ce",
      "transactionType": "CALL",
      "contractName": null,
      "contractAddress": "0xa2d0728743afa575cea658bd6c05478f5c0a1080",
      "function": "createGame((string,uint128,uint16,uint16,uint40,uint40,uint32,int32,int32,uint16,uint16,uint16,uint16,uint16),(uint32,uint32)[])",
      "arguments": [
        "(Chapultepec Hunt, 1000000000000000, 3, 20, 1771198150, 1771284550, 7200, 19420456, -99189554, 3500, 1500, 1000, 2000, 1000)",
        "[(0, 500), (1800, 300), (3600, 150), (5400, 50)]"
      ],
      "transaction": {
        "from": "0x964009f178c927e2a6f74733b66eaa82773cd8a8",
        "to": "0xa2d0728743afa575cea658bd6c05478f5c0a1080",
        "gas": "0x553eb",
        "value": "0x0",
        "input": "0x0edc4f940000000000000000000000000000000000000000000000000000000000000040000000000000000000000000000000000000000000000000000000000000024000000000000000000000000000000000000000000000000000000000000001c000000000000000000000000000000000000000000000000000038d7ea4c680000000000000000000000000000000000000000000000000000000000000000003000000000000000000000000000000000000000000000000000000000000001400000000000000000000000000000000000000000000000000000000699256c6000000000000000000000000000000000000000000000000000000006993a8460000000000000000000000000000000000000000000000000000000000001c200000000000000000000000000000000000000000000000000000000001285528fffffffffffffffffffffffffffffffffffffffffffffffffffffffffa167cce0000000000000000000000000000000000000000000000000000000000000dac00000000000000000000000000000000000000000000000000000000000005dc00000000000000000000000000000000000000000000000000000000000003e800000000000000000000000000000000000000000000000000000000000007d000000000000000000000000000000000000000000000000000000000000003e8000000000000000000000000000000000000000000000000000000000000001043686170756c74657065632048756e74000000000000000000000000000000000000000000000000000000000000000000000000000000000000000000000004000000000000000000000000000000000000000000000000000000000000000000000000000000000000000000000000000000000000000000000000000001f40000000000000000000000000000000000000000000000000000000000000708000000000000000000000000000000000000000000000000000000000000012c0000000000000000000000000000000000000000000000000000000000000e10000000000000000000000000000000000000000000000000000000000000009600000000000000000000000000000000000000000000000000000000000015180000000000000000000000000000000000000000000000000000000000000032",
        "nonce": "0x2",
        "chainId": "0x14a34"
      },
      "additionalContracts": [],
      "isFixedGasLimit": false
    }
  ],
  "receipts": [
    {
      "status": "0x1",
      "cumulativeGasUsed": "0xfd8a4",
      "logs": [
        {
          "address": "0xa2d0728743afa575cea658bd6c05478f5c0a1080",
          "topics": [
            "0x4328820f6440d4b15c56b177f7e0e1b02c93a0e8e04cd33ef19385f5ddf5976e",
            "0x0000000000000000000000000000000000000000000000000000000000000001"
          ],
          "data": "0x00000000000000000000000000000000000000000000000000000000000000c000000000000000000000000000000000000000000000000000038d7ea4c68000000000000000000000000000000000000000000000000000000000000000000300000000000000000000000000000000000000000000000000000000000000140000000000000000000000000000000000000000000000000000000001285528fffffffffffffffffffffffffffffffffffffffffffffffffffffffffa167cce000000000000000000000000000000000000000000000000000000000000001043686170756c74657065632048756e7400000000000000000000000000000000",
          "blockHash": "0x0000000000000000000000000000000000000000000000000000000000000000",
          "blockNumber": "0x23b8777",
          "blockTimestamp": "0x698a6dce",
          "transactionHash": "0xf07d7b44f52c4448f8496f13c59b62a34df3667ae86089808f0b4250f8a1f3ce",
          "transactionIndex": "0x2",
          "logIndex": "0x36",
          "removed": false
        }
      ],
      "logsBloom": "0x00000000000000000000000000000000000000000000000000000000000008000000000000000000000000000000002000000000000000000000000000040000000000000000000000000000000000000000000000040000000000000000000000000000000000000000000000000400000000000000000000000000080000000000000000000000000000000000000000000000000000000000000000000000000000000000000000000000000000000000000000000000000000000002000000000000000000000000000000000000000000000000000000000000000040000000000000000000000000000000000010000000000000000000000000000000",
      "type": "0x2",
      "transactionHash": "0xf07d7b44f52c4448f8496f13c59b62a34df3667ae86089808f0b4250f8a1f3ce",
      "transactionIndex": "0x2",
      "blockHash": "0x0000000000000000000000000000000000000000000000000000000000000000",
      "blockNumber": "0x23b8777",
      "gasUsed": "0x3db74",
      "effectiveGasPrice": "0x124f80",
      "blobGasUsed": "0x12348",
      "from": "0x964009f178c927e2a6f74733b66eaa82773cd8a8",
      "to": "0xa2d0728743afa575cea658bd6c05478f5c0a1080",
      "contractAddress": null,
      "daFootprintGasScalar": "0x138",
      "l1BaseFeeScalar": "0x44d",
      "l1BlobBaseFee": "0x35bd2c3",
      "l1BlobBaseFeeScalar": "0xa118b",
      "l1Fee": "0x3108f1618",
      "l1GasPrice": "0x3c4b057a",
      "l1GasUsed": "0xef5"
    }
  ],
  "libraries": [],
  "pending": [],
  "returns": {},
  "timestamp": 1770679756282,
  "chain": 84532,
  "commit": "09eb339"
}