2026-02-13T21:10:39.966948Z  INFO node::user: eth_blockNumber
2026-02-13T21:10:40.021192Z  INFO node::user: eth_getTransactionCount
2026-02-13T21:10:40.056244Z  INFO node::user: eth_getCode
2026-02-13T21:10:40.062155Z  INFO node::user: eth_gasPrice
2026-02-13T21:10:40.062277Z  INFO node::user: eth_chainId
2026-02-13T21:10:40.062322Z  INFO node::user: eth_getBlockByNumber
2026-02-13T21:10:40.066619Z  INFO node::user: eth_chainId
2026-02-13T21:10:40.066667Z  INFO node::user: eth_gasPrice
2026-02-13T21:10:40.066672Z  INFO node::user: eth_getBlockByNumber
2026-02-13T21:10:40.069231Z  INFO node::user: eth_getBalance
2026-02-13T21:10:40.069277Z  INFO node::user: eth_getCode
2026-02-13T21:10:40.069295Z  INFO node::user: eth_getAccountInfo
2026-02-13T21:10:40.069304Z  INFO node::user: eth_getAccount
2026-02-13T21:10:40.069280Z  INFO node::user: eth_getTransactionCount
2026-02-13T21:10:40.069518Z  INFO node::user: eth_getCode
2026-02-13T21:10:40.069591Z  INFO node::user: eth_getCode
2026-02-13T21:10:40.069599Z  INFO node::user: eth_getTransactionCount
2026-02-13T21:10:40.069647Z  INFO node::user: eth_getBalance
2026-02-13T21:10:40.069733Z  INFO node::user: eth_getBalance
2026-02-13T21:10:40.069747Z  INFO node::user: eth_getTransactionCount
2026-02-13T21:10:40.069778Z  INFO node::user: eth_getCode
2026-02-13T21:10:40.070905Z  INFO node::user: eth_getBalance
2026-02-13T21:10:40.070923Z  INFO node::user: eth_getTransactionCount
2026-02-13T21:10:40.070927Z  INFO node::user: eth_getCode
2026-02-13T21:10:40.072014Z  INFO node::user: eth_getCode
2026-02-13T21:10:40.072020Z  INFO node::user: eth_getBalance
2026-02-13T21:10:40.072024Z  INFO node::user: eth_getTransactionCount
2026-02-13T21:10:40.072489Z  INFO node::user: eth_getBalance
2026-02-13T21:10:40.072506Z  INFO node::user: eth_getCode
2026-02-13T21:10:40.072509Z  INFO node::user: eth_getTransactionCount
2026-02-13T21:10:40.158687Z  INFO node::user: eth_chainId
2026-02-13T21:10:40.669651Z  INFO node::user: eth_chainId
2026-02-13T21:10:40.672099Z  INFO node::user: eth_gasPrice
2026-02-13T21:10:40.672185Z  INFO node::user: eth_getBlockByNumber
2026-02-13T21:10:40.672197Z  INFO node::user: eth_chainId
2026-02-13T21:10:40.673295Z  INFO node::user: eth_chainId
2026-02-13T21:10:40.674599Z  INFO node::user: eth_feeHistory
2026-02-13T21:10:40.694102Z  INFO node::user: eth_feeHistory
2026-02-13T21:10:40.695428Z  INFO node::user: eth_sendRawTransaction
2026-02-13T21:10:40.695489Z  INFO node::user: eth_sendRawTransaction
2026-02-13T21:10:40.698461Z  INFO node::user: eth_getTransactionReceipt
2026-02-13T21:10:40.698472Z  INFO node::user: eth_getTransactionReceipt
2026-02-13T21:10:40.699010Z  INFO node::user: eth_blockNumber
2026-02-13T21:10:40.699105Z  INFO node::user: eth_getBlockByNumber
2026-02-13T21:10:40.699211Z  INFO node::user: eth_getTransactionReceipt
2026-02-13T21:10:40.699273Z  INFO node::user: 
2026-02-13T21:10:40.699277Z  INFO node::user:     Transaction: 0xf843f20283d51fce77ba8dd458e16ede8664627f8ec8ed3d7ed462d72ccf8484
2026-02-13T21:10:40.699403Z  INFO node::user:     Contract created: 0x5FbDB2315678afecb367f032d93F642f64180aa3
2026-02-13T21:10:40.699408Z  INFO node::user:     Gas used: 2782436
2026-02-13T21:10:40.699410Z  INFO node::user: 
2026-02-13T21:10:40.699418Z  INFO node::user:     Transaction: 0xf422163550167bd325d43e1239a55d5a56e582c1f8eefa2bf21f8ca814a08991
2026-02-13T21:10:40.699421Z  INFO node::user:     Gas used: 2830050
2026-02-13T21:10:40.699423Z  INFO node::user: 
2026-02-13T21:10:40.699426Z  INFO node::user:     Block Number: 1
2026-02-13T21:10:40.699429Z  INFO node::user:     Block Hash: 0x240f11a77fbc7a5c36cc1b4f1aff684fc679307dc9094293c09bde6e6ed6a8ba
2026-02-13T21:10:40.699446Z  INFO node::user:     Block Time: "Fri, 13 Feb 2026 21:10:40 +0000"

2026-02-13T21:10:40.699606Z  INFO node::user: eth_getTransactionReceipt
2026-02-13T21:10:40.950984Z  INFO node::user: eth_getTransactionReceipt
2026-02-13T21:10:40.950984Z  INFO node::user: eth_blockNumber
2026-02-13T21:10:40.951210Z  INFO node::user: eth_getBlockByNumber
2026-02-13T21:10:41.542812Z  INFO node::user: eth_chainId
2026-02-13T21:10:41.543635Z  INFO node::user: eth_call
2026-02-13T21:10:41.557094Z  INFO node::user: eth_blockNumber
2026-02-13T21:10:42.097029Z  INFO node::user: eth_chainId
2026-02-13T21:10:42.106640Z  INFO node::user: eth_getBlockByNumber
2026-02-13T21:10:42.119344Z  INFO node::user: eth_getTransactionCount
2026-02-13T21:10:42.119388Z  INFO node::user: eth_chainId
2026-02-13T21:10:42.135860Z  INFO node::user: eth_estimateGas
2026-02-13T21:10:42.162845Z  INFO node::user: eth_chainId
2026-02-13T21:10:42.177485Z  INFO node::user: eth_chainId
2026-02-13T21:10:42.188437Z  INFO node::user: eth_gasPrice
2026-02-13T21:10:42.188462Z  INFO node::user: eth_maxPriorityFeePerGas
2026-02-13T21:10:42.202421Z  INFO node::user: eth_blockNumber
2026-02-13T21:10:42.202454Z  INFO node::user: eth_sendRawTransaction
2026-02-13T21:10:42.202559Z  INFO node::user: eth_chainId
2026-02-13T21:10:42.202755Z  INFO node::user: 
2026-02-13T21:10:42.202767Z  INFO node::user:     Transaction: 0xb385cb32ae2a3689b0c648984bf3b0fa451f1c75181a2601d418dc9f2a753eed
2026-02-13T21:10:42.202770Z  INFO node::user:     Gas used: 232985
2026-02-13T21:10:42.202773Z  INFO node::user: 
2026-02-13T21:10:42.202775Z  INFO node::user:     Block Number: 2
2026-02-13T21:10:42.202777Z  INFO node::user:     Block Hash: 0x59591ddf2a77fa68e0741e09933dee5c6f9eb9097f7d143b6edd767396cd076e
2026-02-13T21:10:42.202779Z  INFO node::user:     Block Time: "Fri, 13 Feb 2026 21:10:42 +0000"

2026-02-13T21:10:42.215761Z  INFO node::user: eth_call
2026-02-13T21:10:42.215792Z  INFO node::user: eth_chainId
2026-02-13T21:10:42.216942Z  INFO node::user: eth_chainId
2026-02-13T21:10:42.216957Z  INFO node::user: eth_getTransactionReceipt
2026-02-13T21:10:42.228460Z  INFO node::user: eth_call
2026-02-13T21:10:42.228511Z  INFO node::user: eth_chainId
2026-02-13T21:10:42.230241Z  INFO node::user: eth_getTransactionCount
2026-02-13T21:10:42.230270Z  INFO node::user: eth_chainId
2026-02-13T21:10:42.242915Z  INFO node::user: eth_estimateGas
2026-02-13T21:10:42.254770Z  INFO node::user: eth_chainId
2026-02-13T21:10:42.266313Z  INFO node::user: eth_chainId
2026-02-13T21:10:42.278742Z  INFO node::user: eth_sendRawTransaction
2026-02-13T21:10:42.278876Z  INFO node::user: eth_chainId
2026-02-13T21:10:42.278996Z  INFO node::user: 
2026-02-13T21:10:42.279003Z  INFO node::user:     Transaction: 0x7d3b3c759cd143e280656da7c3b4ff1a51b79c97584569859486ef0f2b9fb1cb
2026-02-13T21:10:42.279006Z  INFO node::user:     Gas used: 96197
2026-02-13T21:10:42.279008Z  INFO node::user: 
2026-02-13T21:10:42.279011Z  INFO node::user:     Block Number: 3
2026-02-13T21:10:42.279012Z  INFO node::user:     Block Hash: 0xf76838f6cc19c28d63c515082b0aad9dfeb79652fbe5fba47e84d5ca9d705019
2026-02-13T21:10:42.279015Z  INFO node::user:     Block Time: "Fri, 13 Feb 2026 21:10:42 +0000"

2026-02-13T21:10:42.290754Z  INFO node::user: eth_call
2026-02-13T21:10:42.290791Z  INFO node::user: eth_chainId
2026-02-13T21:10:42.292257Z  INFO node::user: eth_chainId
2026-02-13T21:10:42.292264Z  INFO node::user: eth_getTransactionReceipt
2026-02-13T21:10:42.303152Z  INFO node::user: eth_getTransactionCount
2026-02-13T21:10:42.303221Z  INFO node::user: eth_chainId
2026-02-13T21:10:42.303333Z  INFO node::user: eth_call
2026-02-13T21:10:42.303357Z  INFO node::user: eth_chainId
2026-02-13T21:10:42.314938Z  INFO node::user: eth_estimateGas
2026-02-13T21:10:42.326711Z  INFO node::user: eth_chainId
2026-02-13T21:10:42.338403Z  INFO node::user: eth_chainId
2026-02-13T21:10:42.349811Z  INFO node::user: eth_sendRawTransaction
2026-02-13T21:10:42.349925Z  INFO node::user: eth_chainId
2026-02-13T21:10:42.350020Z  INFO node::user: 
2026-02-13T21:10:42.350024Z  INFO node::user:     Transaction: 0x3c1eb9ee0cd3ae3f17917cb711f0d29d9db04b28c8cc74217e571508a29b2766
2026-02-13T21:10:42.350026Z  INFO node::user:     Gas used: 79097
2026-02-13T21:10:42.350027Z  INFO node::user: 
2026-02-13T21:10:42.350029Z  INFO node::user:     Block Number: 4
2026-02-13T21:10:42.350031Z  INFO node::user:     Block Hash: 0xfd26c1faa25aacc49904d906409dda7cae227853877942028b25607e47fc460c
2026-02-13T21:10:42.350040Z  INFO node::user:     Block Time: "Fri, 13 Feb 2026 21:10:42 +0000"

2026-02-13T21:10:42.361540Z  INFO node::user: eth_call
2026-02-13T21:10:42.361585Z  INFO node::user: eth_chainId
2026-02-13T21:10:42.361994Z  INFO node::user: eth_chainId
2026-02-13T21:10:42.362005Z  INFO node::user: eth_getTransactionReceipt
2026-02-13T21:10:42.373300Z  INFO node::user: eth_getTransactionCount
2026-02-13T21:10:42.373333Z  INFO node::user: eth_chainId
2026-02-13T21:10:42.373721Z  INFO node::user: eth_call
2026-02-13T21:10:42.373741Z  INFO node::user: eth_chainId
2026-02-13T21:10:42.385304Z  INFO node::user: eth_estimateGas
2026-02-13T21:10:42.396974Z  INFO node::user: eth_chainId
2026-02-13T21:10:42.408457Z  INFO node::user: eth_chainId
2026-02-13T21:10:42.420144Z  INFO node::user: eth_getBlockByNumber
2026-02-13T21:10:42.432689Z  INFO node::user: eth_sendRawTransaction
2026-02-13T21:10:42.432800Z  INFO node::user: eth_chainId
2026-02-13T21:10:42.432912Z  INFO node::user: 
2026-02-13T21:10:42.432915Z  INFO node::user:     Transaction: 0x9fe9b2c9cefdc876bdb0182e4efe0cd4296bfa852d34e55c3f4103ad49774add
2026-02-13T21:10:42.432917Z  INFO node::user:     Gas used: 79097
2026-02-13T21:10:42.432920Z  INFO node::user: 
2026-02-13T21:10:42.432922Z  INFO node::user:     Block Number: 5
2026-02-13T21:10:42.432923Z  INFO node::user:     Block Hash: 0x564c334a9e16831f1570d81e76f04d6a4d328cb7de292ea93220c11d8dd03ce6
2026-02-13T21:10:42.432925Z  INFO node::user:     Block Time: "Fri, 13 Feb 2026 21:10:42 +0000"

2026-02-13T21:10:42.444920Z  INFO node::user: eth_call
2026-02-13T21:10:42.444969Z  INFO node::user: eth_chainId
2026-02-13T21:10:42.445248Z  INFO node::user: eth_chainId
2026-02-13T21:10:42.445270Z  INFO node::user: eth_getTransactionReceipt
2026-02-13T21:10:42.456806Z  INFO node::user: eth_estimateGas
2026-02-13T21:10:42.457032Z  INFO node::user: eth_call
2026-02-13T21:10:42.457062Z  INFO node::user: eth_chainId
2026-02-13T21:10:42.468719Z  INFO node::user: eth_chainId
2026-02-13T21:10:42.479374Z  INFO node::user: eth_chainId
2026-02-13T21:10:42.490178Z  INFO node::user: eth_gasPrice
2026-02-13T21:10:42.490203Z  INFO node::user: eth_maxPriorityFeePerGas
2026-02-13T21:10:42.502343Z  INFO node::user: eth_blockNumber
2026-02-13T21:10:42.502368Z  INFO node::user: eth_sendRawTransaction
2026-02-13T21:10:42.502467Z  INFO node::user: eth_chainId
2026-02-13T21:10:42.502594Z  INFO node::user: 
2026-02-13T21:10:42.502597Z  INFO node::user:     Transaction: 0x0e3362e3aaf1fda4bded12b00104f082ee89f18a58d6c03dce9e15c8e74a5e61
2026-02-13T21:10:42.502599Z  INFO node::user:     Gas used: 232961
2026-02-13T21:10:42.502601Z  INFO node::user: 
2026-02-13T21:10:42.502604Z  INFO node::user:     Block Number: 6
2026-02-13T21:10:42.502605Z  INFO node::user:     Block Hash: 0x9d9f2059d791f3f9d77d8702221c7750642dd9395e28ce71b819b5396b54416e
2026-02-13T21:10:42.502608Z  INFO node::user:     Block Time: "Fri, 13 Feb 2026 21:10:42 +0000"

2026-02-13T21:10:42.514778Z  INFO node::user: eth_call
2026-02-13T21:10:42.514802Z  INFO node::user: eth_chainId
2026-02-13T21:10:42.514856Z  INFO node::user: eth_chainId
2026-02-13T21:10:42.514865Z  INFO node::user: eth_getTransactionReceipt
2026-02-13T21:10:42.526770Z  INFO node::user: eth_call
2026-02-13T21:10:42.526797Z  INFO node::user: eth_chainId
2026-02-13T21:10:42.527162Z  INFO node::user: eth_chainId
2026-02-13T21:10:42.539122Z  INFO node::user: eth_estimateGas
2026-02-13T21:10:42.550013Z  INFO node::user: eth_chainId
2026-02-13T21:10:42.561251Z  INFO node::user: eth_chainId
2026-02-13T21:10:42.572786Z  INFO node::user: eth_sendRawTransaction
2026-02-13T21:10:42.572892Z  WARN backend: [0x75d29373a284df963666fee565d2c274bb8e32daf96eae93f439a0efe79c105c] nonce too low
2026-02-13T21:10:42.575100Z  INFO node::user: 
RPC request failed:
2026-02-13T21:10:42.575105Z  INFO node::user:     Request: EthSendRawTransaction(0x02f898827a6980843b9aca00848de014f283017a7a945fbdb2315678afecb367f032d93f642f64180aa387354a6ba7a18000a4f207564e0000000000000000000000000000000000000000000000000000000000000002c001a0a1524b02787acbdf0e16aed3fd54ccdd0f96d67fef3f3ec0f25479e0e16abba9a03760e3e9f1bfd26e474612b0d6e45ea1c687341381667ce0493d692adf205402)
2026-02-13T21:10:42.575260Z  INFO node::user:     Error: Transaction rejected: nonce too low

2026-02-13T21:10:42.575266Z  INFO node::user: eth_chainId
2026-02-13T21:10:42.587142Z  INFO node::user: eth_chainId
2026-02-13T21:10:42.598285Z  INFO node::user: eth_chainId
2026-02-13T21:10:42.609965Z  INFO node::user: eth_chainId
2026-02-13T21:10:42.621145Z  INFO node::user: eth_sendRawTransaction
2026-02-13T21:10:42.621280Z  WARN backend: [0x75d29373a284df963666fee565d2c274bb8e32daf96eae93f439a0efe79c105c] nonce too low
2026-02-13T21:10:42.621286Z  INFO node::user: 
RPC request failed:
2026-02-13T21:10:42.621288Z  INFO node::user:     Request: EthSendRawTransaction(0x02f898827a6980843b9aca00848de014f283017a7a945fbdb2315678afecb367f032d93f642f64180aa387354a6ba7a18000a4f207564e0000000000000000000000000000000000000000000000000000000000000002c001a0a1524b02787acbdf0e16aed3fd54ccdd0f96d67fef3f3ec0f25479e0e16abba9a03760e3e9f1bfd26e474612b0d6e45ea1c687341381667ce0493d692adf205402)
2026-02-13T21:10:42.621292Z  INFO node::user:     Error: Transaction rejected: nonce too low

2026-02-13T21:10:42.621297Z  INFO node::user: eth_chainId
2026-02-13T21:10:42.632235Z  INFO node::user: eth_getTransactionCount
2026-02-13T21:10:42.632265Z  INFO node::user: eth_chainId
2026-02-13T21:10:42.643962Z  INFO node::user: eth_estimateGas
2026-02-13T21:10:42.655626Z  INFO node::user: eth_chainId
2026-02-13T21:10:42.666135Z  INFO node::user: eth_chainId
2026-02-13T21:10:42.677560Z  INFO node::user: eth_getBlockByNumber
2026-02-13T21:10:42.688984Z  INFO node::user: eth_sendRawTransaction
2026-02-13T21:10:42.689148Z  INFO node::user: eth_chainId
2026-02-13T21:10:42.689320Z  INFO node::user: 
2026-02-13T21:10:42.689328Z  INFO node::user:     Transaction: 0x740add039166266be26a0a08ea1e9573825ed0a3de7d18adbc1132efa986afea
2026-02-13T21:10:42.689331Z  INFO node::user:     Gas used: 96197
2026-02-13T21:10:42.689334Z  INFO node::user: 
2026-02-13T21:10:42.689342Z  INFO node::user:     Block Number: 7
2026-02-13T21:10:42.689345Z  INFO node::user:     Block Hash: 0x43d59bfdb89919fde2eb4755b48b345141f738c498bf5440c555a2ddd7b98112
2026-02-13T21:10:42.689348Z  INFO node::user:     Block Time: "Fri, 13 Feb 2026 21:10:42 +0000"

2026-02-13T21:10:42.701546Z  INFO node::user: eth_call
2026-02-13T21:10:42.701578Z  INFO node::user: eth_chainId
2026-02-13T21:10:42.702788Z  INFO node::user: eth_chainId
2026-02-13T21:10:42.702801Z  INFO node::user: eth_getTransactionReceipt
2026-02-13T21:10:42.713567Z  INFO node::user: eth_getTransactionCount
2026-02-13T21:10:42.713574Z  INFO node::user: eth_call
2026-02-13T21:10:42.713600Z  INFO node::user: eth_chainId
2026-02-13T21:10:42.713612Z  INFO node::user: eth_chainId
2026-02-13T21:10:42.725369Z  INFO node::user: eth_estimateGas
2026-02-13T21:10:42.736179Z  INFO node::user: eth_chainId
2026-02-13T21:10:42.746929Z  INFO node::user: eth_chainId
2026-02-13T21:10:42.757775Z  INFO node::user: eth_gasPrice
2026-02-13T21:10:42.757811Z  INFO node::user: eth_maxPriorityFeePerGas
2026-02-13T21:10:42.769721Z  INFO node::user: eth_blockNumber
2026-02-13T21:10:42.769743Z  INFO node::user: eth_sendRawTransaction
2026-02-13T21:10:42.769908Z  INFO node::user: eth_chainId
2026-02-13T21:10:42.770104Z  INFO node::user: 
2026-02-13T21:10:42.770110Z  INFO node::user:     Transaction: 0x09a11e832f69bb155e273f8511819fc34221660258f2cee19d0856f8bca9c6a2
2026-02-13T21:10:42.770115Z  INFO node::user:     Gas used: 79097
2026-02-13T21:10:42.770118Z  INFO node::user: 
2026-02-13T21:10:42.770122Z  INFO node::user:     Block Number: 8
2026-02-13T21:10:42.770124Z  INFO node::user:     Block Hash: 0x4da6b391520a400f32dab1ecda6fb09993537400479c720cd34cde9aa0eef453
2026-02-13T21:10:42.770129Z  INFO node::user:     Block Time: "Fri, 13 Feb 2026 21:10:42 +0000"

2026-02-13T21:10:42.782816Z  INFO node::user: eth_call
2026-02-13T21:10:42.782849Z  INFO node::user: eth_chainId
2026-02-13T21:10:42.783099Z  INFO node::user: eth_chainId
2026-02-13T21:10:42.783108Z  INFO node::user: eth_getTransactionReceipt
2026-02-13T21:10:42.794174Z  INFO node::user: eth_getTransactionCount
2026-02-13T21:10:42.794216Z  INFO node::user: eth_chainId
2026-02-13T21:10:42.794517Z  INFO node::user: eth_call
2026-02-13T21:10:42.794544Z  INFO node::user: eth_chainId
2026-02-13T21:10:42.806317Z  INFO node::user: eth_estimateGas
2026-02-13T21:10:42.818049Z  INFO node::user: eth_chainId
2026-02-13T21:10:42.829521Z  INFO node::user: eth_chainId
2026-02-13T21:10:42.842234Z  INFO node::user: eth_sendRawTransaction
2026-02-13T21:10:42.842412Z  INFO node::user: eth_chainId
2026-02-13T21:10:42.842601Z  INFO node::user: 
2026-02-13T21:10:42.842605Z  INFO node::user:     Transaction: 0x5506f33e6d52ef8ce543fb8b092cbc8b52da023e953cf7b50f350b7b4f07e8aa
2026-02-13T21:10:42.842609Z  INFO node::user:     Gas used: 79097
2026-02-13T21:10:42.842612Z  INFO node::user: 
2026-02-13T21:10:42.842616Z  INFO node::user:     Block Number: 9
2026-02-13T21:10:42.842618Z  INFO node::user:     Block Hash: 0x33542c50e95739718bca3e0780b60a465c54de8d16a3d7add1e5b50f5e89fad9
2026-02-13T21:10:42.842622Z  INFO node::user:     Block Time: "Fri, 13 Feb 2026 21:10:42 +0000"

2026-02-13T21:10:42.855215Z  INFO node::user: eth_call
2026-02-13T21:10:42.855263Z  INFO node::user: eth_chainId
2026-02-13T21:10:42.855399Z  INFO node::user: eth_chainId
2026-02-13T21:10:42.855410Z  INFO node::user: eth_getTransactionReceipt
2026-02-13T21:10:42.867454Z  INFO node::user: eth_call
2026-02-13T21:10:42.867458Z  INFO node::user: eth_estimateGas
2026-02-13T21:10:42.867535Z  INFO node::user: eth_chainId
2026-02-13T21:10:42.879102Z  INFO node::user: eth_chainId
2026-02-13T21:10:42.890921Z  INFO node::user: eth_chainId
2026-02-13T21:10:42.903280Z  INFO node::user: eth_sendRawTransaction
2026-02-13T21:10:42.903424Z  INFO node::user: eth_chainId
2026-02-13T21:10:42.903612Z  INFO node::user: 
2026-02-13T21:10:42.903617Z  INFO node::user:     Transaction: 0xc2a50005fabbd3b825eb0c84913ddeec1b17ee65606f914ef35402dad60a9343
2026-02-13T21:10:42.903620Z  INFO node::user:     Gas used: 232949
2026-02-13T21:10:42.903622Z  INFO node::user: 
2026-02-13T21:10:42.903625Z  INFO node::user:     Block Number: 10
2026-02-13T21:10:42.903626Z  INFO node::user:     Block Hash: 0x946152763a5594d70fcb7ed23b3f32c2adfad1722f6a32b4f4006f1746b6cfcc
2026-02-13T21:10:42.903629Z  INFO node::user:     Block Time: "Fri, 13 Feb 2026 21:10:42 +0000"

2026-02-13T21:10:42.916237Z  INFO node::user: eth_call
2026-02-13T21:10:42.916270Z  INFO node::user: eth_chainId
2026-02-13T21:10:42.916999Z  INFO node::user: eth_chainId
2026-02-13T21:10:42.917014Z  INFO node::user: eth_getTransactionReceipt
2026-02-13T21:10:42.928001Z  INFO node::user: eth_call
2026-02-13T21:10:42.928044Z  INFO node::user: eth_chainId
2026-02-13T21:10:42.929465Z  INFO node::user: eth_getTransactionCount
2026-02-13T21:10:42.929483Z  INFO node::user: eth_chainId
2026-02-13T21:10:42.941025Z  INFO node::user: eth_estimateGas
2026-02-13T21:10:42.952705Z  INFO node::user: eth_chainId
2026-02-13T21:10:42.963333Z  INFO node::user: eth_chainId
2026-02-13T21:10:42.974936Z  INFO node::user: eth_getBlockByNumber
2026-02-13T21:10:42.986273Z  INFO node::user: eth_sendRawTransaction
2026-02-13T21:10:42.986400Z  INFO node::user: eth_chainId
2026-02-13T21:10:42.986529Z  INFO node::user: 
2026-02-13T21:10:42.986533Z  INFO node::user:     Transaction: 0x4e492ea497d4582735d718b92f4c28bfd1ff57ddc4e235f79aaba2d9c9efdf99
2026-02-13T21:10:42.986535Z  INFO node::user:     Gas used: 96197
2026-02-13T21:10:42.986538Z  INFO node::user: 
2026-02-13T21:10:42.986540Z  INFO node::user:     Block Number: 11
2026-02-13T21:10:42.986541Z  INFO node::user:     Block Hash: 0x1a76111e8d48421cfc3d7e69662864702469a45f353887dd1e76da0afc142102
2026-02-13T21:10:42.986544Z  INFO node::user:     Block Time: "Fri, 13 Feb 2026 21:10:42 +0000"

2026-02-13T21:10:42.998342Z  INFO node::user: eth_chainId
2026-02-13T21:10:42.998372Z  INFO node::user: eth_getTransactionReceipt
2026-02-13T21:10:42.998350Z  INFO node::user: eth_call
2026-02-13T21:10:42.998391Z  INFO node::user: eth_chainId
2026-02-13T21:10:43.009513Z  INFO node::user: eth_call
2026-02-13T21:10:43.009527Z  INFO node::user: eth_chainId
2026-02-13T21:10:43.009933Z  INFO node::user: eth_getTransactionCount
2026-02-13T21:10:43.009954Z  INFO node::user: eth_chainId
2026-02-13T21:10:43.021561Z  INFO node::user: eth_estimateGas
2026-02-13T21:10:43.032257Z  INFO node::user: eth_chainId
2026-02-13T21:10:43.043587Z  INFO node::user: eth_chainId
2026-02-13T21:10:43.055133Z  INFO node::user: eth_gasPrice
2026-02-13T21:10:43.055153Z  INFO node::user: eth_maxPriorityFeePerGas
2026-02-13T21:10:43.067062Z  INFO node::user: eth_blockNumber
2026-02-13T21:10:43.067075Z  INFO node::user: eth_sendRawTransaction
2026-02-13T21:10:43.067211Z  INFO node::user: eth_chainId
2026-02-13T21:10:43.067350Z  INFO node::user: 
2026-02-13T21:10:43.067359Z  INFO node::user:     Transaction: 0x0716fd31638b167d38abf773da3e5e12c2d756fe308639a66c4e03768f7e4ebe
2026-02-13T21:10:43.067362Z  INFO node::user:     Gas used: 79097
2026-02-13T21:10:43.067365Z  INFO node::user: 
2026-02-13T21:10:43.067368Z  INFO node::user:     Block Number: 12
2026-02-13T21:10:43.067370Z  INFO node::user:     Block Hash: 0x54cef5786ec4463e06acccb3cd297580f3585659a93598fbbfc1bfe61f7fd603
2026-02-13T21:10:43.067373Z  INFO node::user:     Block Time: "Fri, 13 Feb 2026 21:10:43 +0000"

2026-02-13T21:10:43.079646Z  INFO node::user: eth_call
2026-02-13T21:10:43.079714Z  INFO node::user: eth_chainId
2026-02-13T21:10:43.079865Z  INFO node::user: eth_chainId
2026-02-13T21:10:43.079884Z  INFO node::user: eth_getTransactionReceipt
2026-02-13T21:10:43.092110Z  INFO node::user: eth_chainId
2026-02-13T21:10:43.092183Z  INFO node::user: eth_call
2026-02-13T21:10:43.092193Z  INFO node::user: eth_chainId
2026-02-13T21:10:43.106146Z  INFO node::user: evm_increaseTime
2026-02-13T21:10:43.118032Z  INFO node::user: evm_mine
2026-02-13T21:10:43.118148Z  INFO node::user: 
2026-02-13T21:10:43.118156Z  INFO node::user:     Block Number: 13
2026-02-13T21:10:43.118160Z  INFO node::user:     Block Hash: 0x4c1bedaea61512b54206f5c3c1a4ceacae9b828eaf0624c11b5578b02e81497e
2026-02-13T21:10:43.118164Z  INFO node::user:     Block Time: "Fri, 13 Feb 2026 21:20:13 +0000"

2026-02-13T21:10:43.130308Z  INFO node::user: eth_estimateGas
2026-02-13T21:10:43.141980Z  INFO node::user: eth_chainId
2026-02-13T21:10:43.152956Z  INFO node::user: eth_chainId
2026-02-13T21:10:43.164550Z  INFO node::user: eth_sendRawTransaction
2026-02-13T21:10:43.164679Z  INFO node::user: eth_chainId
2026-02-13T21:10:43.164836Z  INFO node::user: 
2026-02-13T21:10:43.164841Z  INFO node::user:     Transaction: 0x43b830dc515f092f1efb581f8b68044889774f3d59380027da047feb17adc657
2026-02-13T21:10:43.164844Z  INFO node::user:     Gas used: 35338
2026-02-13T21:10:43.164847Z  INFO node::user: 
2026-02-13T21:10:43.164850Z  INFO node::user:     Block Number: 14
2026-02-13T21:10:43.164852Z  INFO node::user:     Block Hash: 0x0fc251ab7030d4fcf5d38546c9a4a310f5bf103d9452c1006b72893b50040732
2026-02-13T21:10:43.164855Z  INFO node::user:     Block Time: "Fri, 13 Feb 2026 21:20:13 +0000"

2026-02-13T21:10:43.177279Z  INFO node::user: eth_chainId
2026-02-13T21:10:43.177307Z  INFO node::user: eth_getBlockByNumber
2026-02-13T21:10:43.177947Z  INFO node::user: eth_chainId
2026-02-13T21:10:43.177961Z  INFO node::user: eth_getTransactionReceipt
2026-02-13T21:10:43.189456Z  INFO node::user: eth_estimateGas
2026-02-13T21:10:43.201258Z  INFO node::user: eth_chainId
2026-02-13T21:10:43.212857Z  INFO node::user: eth_chainId
2026-02-13T21:10:43.225252Z  INFO node::user: eth_sendRawTransaction
2026-02-13T21:10:43.225413Z  INFO node::user: eth_chainId
2026-02-13T21:10:43.225588Z  INFO node::user: 
2026-02-13T21:10:43.225595Z  INFO node::user:     Transaction: 0xc2b263ce5fba3509e870a0514afdc7c24c7d28dba98eb85bf7276f749dfa577e
2026-02-13T21:10:43.225598Z  INFO node::user:     Gas used: 92282
2026-02-13T21:10:43.225600Z  INFO node::user: 
2026-02-13T21:10:43.225609Z  INFO node::user:     Block Number: 15
2026-02-13T21:10:43.225611Z  INFO node::user:     Block Hash: 0x7e3b54de14f31cb1e2480ea4c56d3cbcda39bc9f35e2fec7075cd2480a3cb6b4
2026-02-13T21:10:43.225629Z  INFO node::user:     Block Time: "Fri, 13 Feb 2026 21:20:13 +0000"

2026-02-13T21:10:43.238580Z  INFO node::user: eth_chainId
2026-02-13T21:10:43.238620Z  INFO node::user: eth_getTransactionReceipt
2026-02-13T21:10:43.249962Z  INFO node::user: eth_estimateGas
2026-02-13T21:10:43.262072Z  INFO node::user: eth_chainId
2026-02-13T21:10:43.272917Z  INFO node::user: eth_chainId
2026-02-13T21:10:43.284545Z  INFO node::user: eth_getBlockByNumber
2026-02-13T21:10:43.295841Z  INFO node::user: eth_sendRawTransaction
2026-02-13T21:10:43.295977Z  INFO node::user: eth_chainId
2026-02-13T21:10:43.296217Z  INFO node::user: 
2026-02-13T21:10:43.296223Z  INFO node::user:     Transaction: 0x5936658a877d8876455908920a4e82f2dcb2bf55c6389cdd1b48acb1b6721467
2026-02-13T21:10:43.296226Z  INFO node::user:     Gas used: 35338
2026-02-13T21:10:43.296228Z  INFO node::user: 
2026-02-13T21:10:43.296240Z  INFO node::user:     Block Number: 16
2026-02-13T21:10:43.296250Z  INFO node::user:     Block Hash: 0xa0c68aeee4b63e0d3a5195b69fa4d6482ca703fc0ff922495bf1f97b317e6363
2026-02-13T21:10:43.296253Z  INFO node::user:     Block Time: "Fri, 13 Feb 2026 21:20:13 +0000"

2026-02-13T21:10:43.308530Z  INFO node::user: eth_chainId
2026-02-13T21:10:43.308563Z  INFO node::user: eth_getTransactionReceipt
2026-02-13T21:10:43.309078Z  INFO node::user: eth_chainId
2026-02-13T21:10:43.320494Z  INFO node::user: eth_estimateGas
2026-02-13T21:10:43.331706Z  INFO node::user: eth_chainId
2026-02-13T21:10:43.343225Z  INFO node::user: eth_chainId
2026-02-13T21:10:43.354709Z  INFO node::user: eth_gasPrice
2026-02-13T21:10:43.354731Z  INFO node::user: eth_maxPriorityFeePerGas
2026-02-13T21:10:43.366646Z  INFO node::user: eth_blockNumber
2026-02-13T21:10:43.366667Z  INFO node::user: eth_sendRawTransaction
2026-02-13T21:10:43.366772Z  INFO node::user: eth_chainId
2026-02-13T21:10:43.366942Z  INFO node::user: 
2026-02-13T21:10:43.366946Z  INFO node::user:     Transaction: 0x6c14cebbbacb0c8147be5ef75b9baf628ce47e76f15eae5e281453a8cea35c75
2026-02-13T21:10:43.366948Z  INFO node::user:     Gas used: 58082
2026-02-13T21:10:43.366950Z  INFO node::user: 
2026-02-13T21:10:43.366952Z  INFO node::user:     Block Number: 17
2026-02-13T21:10:43.366954Z  INFO node::user:     Block Hash: 0x70d563b59e4906aa57231befdc5cc9401325f364d584ef000721f9053f4cf420
2026-02-13T21:10:43.366956Z  INFO node::user:     Block Time: "Fri, 13 Feb 2026 21:20:13 +0000"

2026-02-13T21:10:43.379854Z  INFO node::user: eth_chainId
2026-02-13T21:10:43.379872Z  INFO node::user: eth_getTransactionReceipt
2026-02-13T21:10:43.391610Z  INFO node::user: eth_estimateGas
2026-02-13T21:10:43.402984Z  INFO node::user: eth_chainId
2026-02-13T21:10:43.414444Z  INFO node::user: eth_chainId
2026-02-13T21:10:43.426535Z  INFO node::user: eth_sendRawTransaction
2026-02-13T21:10:43.426663Z  INFO node::user: eth_chainId
2026-02-13T21:10:43.426779Z  INFO node::user: 
2026-02-13T21:10:43.426782Z  INFO node::user:     Transaction: 0x8e1b508a1e984463b034aeff893f9cef4da340403a75efa5972d4d14c285b4ed
2026-02-13T21:10:43.426785Z  INFO node::user:     Gas used: 34468
2026-02-13T21:10:43.426787Z  INFO node::user: 
2026-02-13T21:10:43.426789Z  INFO node::user:     Block Number: 18
2026-02-13T21:10:43.426791Z  INFO node::user:     Block Hash: 0xd1f940056a0bd67f11b236449f62fe83640b1b4de81baa2b9174732f181dcda2
2026-02-13T21:10:43.426793Z  INFO node::user:     Block Time: "Fri, 13 Feb 2026 21:20:13 +0000"

2026-02-13T21:10:43.439151Z  INFO node::user: eth_chainId
2026-02-13T21:10:43.439165Z  INFO node::user: eth_getTransactionReceipt
2026-02-13T21:10:43.450779Z  INFO node::user: eth_chainId
2026-02-13T21:10:43.462781Z  INFO node::user: eth_estimateGas
2026-02-13T21:10:43.474601Z  INFO node::user: eth_chainId
2026-02-13T21:10:43.485163Z  INFO node::user: eth_chainId
2026-02-13T21:10:43.497751Z  INFO node::user: eth_sendRawTransaction
2026-02-13T21:10:43.497908Z  INFO node::user: eth_chainId
2026-02-13T21:10:43.498090Z  INFO node::user: 
2026-02-13T21:10:43.498095Z  INFO node::user:     Transaction: 0x92a5c9a0c58765cbb2aa2567565e62402aecef5c1baeda9e007ef1e8d1adbd54
2026-02-13T21:10:43.498111Z  INFO node::user:     Gas used: 232865
2026-02-13T21:10:43.498114Z  INFO node::user: 
2026-02-13T21:10:43.498117Z  INFO node::user:     Block Number: 19
2026-02-13T21:10:43.498120Z  INFO node::user:     Block Hash: 0xa8c4d4d619c5aa6010fb647ae3ed410fc4afa6baead49bf04ac48b55baefa949
2026-02-13T21:10:43.498123Z  INFO node::user:     Block Time: "Fri, 13 Feb 2026 21:20:13 +0000"

2026-02-13T21:10:43.510407Z  INFO node::user: eth_call
2026-02-13T21:10:43.510434Z  INFO node::user: eth_chainId
2026-02-13T21:10:43.511741Z  INFO node::user: eth_chainId
2026-02-13T21:10:43.511756Z  INFO node::user: eth_getTransactionReceipt
2026-02-13T21:10:43.522510Z  INFO node::user: eth_call
2026-02-13T21:10:43.522545Z  INFO node::user: eth_chainId
2026-02-13T21:10:43.523560Z  INFO node::user: eth_getTransactionCount
2026-02-13T21:10:43.523571Z  INFO node::user: eth_chainId
2026-02-13T21:10:43.535229Z  INFO node::user: eth_estimateGas
2026-02-13T21:10:43.547081Z  INFO node::user: eth_chainId
2026-02-13T21:10:43.558479Z  INFO node::user: eth_chainId
2026-02-13T21:10:43.569519Z  INFO node::user: eth_getBlockByNumber
2026-02-13T21:10:43.581777Z  INFO node::user: eth_sendRawTransaction
2026-02-13T21:10:43.581947Z  INFO node::user: eth_chainId
2026-02-13T21:10:43.582135Z  INFO node::user: 
2026-02-13T21:10:43.582143Z  INFO node::user:     Transaction: 0x8db5f313c76073571bde32cfa378b34cc873fd17d567069390706bad2b5980dd
2026-02-13T21:10:43.582146Z  INFO node::user:     Gas used: 96197
2026-02-13T21:10:43.582149Z  INFO node::user: 
2026-02-13T21:10:43.582152Z  INFO node::user:     Block Number: 20
2026-02-13T21:10:43.582155Z  INFO node::user:     Block Hash: 0x30b82cc8665935c6d03fe5ef07cc9083d707fabef9fd29eb29ff93c229a69be7
2026-02-13T21:10:43.582159Z  INFO node::user:     Block Time: "Fri, 13 Feb 2026 21:20:13 +0000"

2026-02-13T21:10:43.593904Z  INFO node::user: eth_call
2026-02-13T21:10:43.593956Z  INFO node::user: eth_chainId
2026-02-13T21:10:43.594895Z  INFO node::user: eth_chainId
2026-02-13T21:10:43.594914Z  INFO node::user: eth_getTransactionReceipt
2026-02-13T21:10:43.606076Z  INFO node::user: eth_getTransactionCount
2026-02-13T21:10:43.606096Z  INFO node::user: eth_chainId
2026-02-13T21:10:43.606148Z  INFO node::user: eth_call
2026-02-13T21:10:43.606164Z  INFO node::user: eth_chainId
2026-02-13T21:10:43.618021Z  INFO node::user: eth_estimateGas
2026-02-13T21:10:43.629928Z  INFO node::user: eth_chainId
2026-02-13T21:10:43.641581Z  INFO node::user: eth_chainId
2026-02-13T21:10:43.653092Z  INFO node::user: eth_gasPrice
2026-02-13T21:10:43.653141Z  INFO node::user: eth_maxPriorityFeePerGas
2026-02-13T21:10:43.665581Z  INFO node::user: eth_blockNumber
2026-02-13T21:10:43.665605Z  INFO node::user: eth_sendRawTransaction
2026-02-13T21:10:43.665754Z  INFO node::user: eth_chainId
2026-02-13T21:10:43.665958Z  INFO node::user: 
2026-02-13T21:10:43.665964Z  INFO node::user:     Transaction: 0xfbefe0c226f56f8d26b672cecfe7631c73e98caa20ea55630370bde61cc8bb15
2026-02-13T21:10:43.665968Z  INFO node::user:     Gas used: 79097
2026-02-13T21:10:43.665970Z  INFO node::user: 
2026-02-13T21:10:43.665973Z  INFO node::user:     Block Number: 21
2026-02-13T21:10:43.665976Z  INFO node::user:     Block Hash: 0x7497c3ac9c81c915283f5a1fd77adfd58089d78bfb33bb37ba8c8f4e762cffcc
2026-02-13T21:10:43.665979Z  INFO node::user:     Block Time: "Fri, 13 Feb 2026 21:20:13 +0000"

2026-02-13T21:10:43.678236Z  INFO node::user: eth_call
2026-02-13T21:10:43.678267Z  INFO node::user: eth_chainId
2026-02-13T21:10:43.678297Z  INFO node::user: eth_chainId
2026-02-13T21:10:43.678303Z  INFO node::user: eth_getTransactionReceipt
2026-02-13T21:10:43.690215Z  INFO node::user: eth_getTransactionCount
2026-02-13T21:10:43.690243Z  INFO node::user: eth_chainId
2026-02-13T21:10:43.690686Z  INFO node::user: eth_call
2026-02-13T21:10:43.690707Z  INFO node::user: eth_chainId
2026-02-13T21:10:43.702198Z  INFO node::user: eth_estimateGas
2026-02-13T21:10:43.714008Z  INFO node::user: eth_chainId
2026-02-13T21:10:43.725272Z  INFO node::user: eth_chainId
2026-02-13T21:10:43.737292Z  INFO node::user: eth_sendRawTransaction
2026-02-13T21:10:43.737512Z  INFO node::user: eth_chainId
2026-02-13T21:10:43.737864Z  INFO node::user: 
2026-02-13T21:10:43.737885Z  INFO node::user:     Transaction: 0x70eb1f19af0846daf29eaf67280ccd6e36b7ef8741c9be5e2fd1a976ed7f459a
2026-02-13T21:10:43.737892Z  INFO node::user:     Gas used: 79097
2026-02-13T21:10:43.737898Z  INFO node::user: 
2026-02-13T21:10:43.737904Z  INFO node::user:     Block Number: 22
2026-02-13T21:10:43.737907Z  INFO node::user:     Block Hash: 0x5d748bf9c3da3efc1128ce2eacf361baa9987a86079a949e3fc58f55979acfc4
2026-02-13T21:10:43.737914Z  INFO node::user:     Block Time: "Fri, 13 Feb 2026 21:20:13 +0000"

2026-02-13T21:10:43.749895Z  INFO node::user: eth_chainId
2026-02-13T21:10:43.749947Z  INFO node::user: eth_getTransactionReceipt
2026-02-13T21:10:43.750815Z  INFO node::user: eth_call
2026-02-13T21:10:43.750836Z  INFO node::user: eth_chainId
2026-02-13T21:10:43.762389Z  INFO node::user: eth_estimateGas
2026-02-13T21:10:43.762502Z  INFO node::user: eth_call
2026-02-13T21:10:43.762526Z  INFO node::user: eth_chainId
2026-02-13T21:10:43.774482Z  INFO node::user: eth_chainId
2026-02-13T21:10:43.786104Z  INFO node::user: eth_chainId
2026-02-13T21:10:43.798077Z  INFO node::user: eth_sendRawTransaction
2026-02-13T21:10:43.798284Z  INFO node::user: eth_chainId
2026-02-13T21:10:43.798501Z  INFO node::user: 
2026-02-13T21:10:43.798511Z  INFO node::user:     Transaction: 0x49947899b6ba7349a0c2f48e8466c350e287f4686783f5cf142f8fb88bbe4324
2026-02-13T21:10:43.798514Z  INFO node::user:     Gas used: 232853
2026-02-13T21:10:43.798517Z  INFO node::user: 
2026-02-13T21:10:43.798519Z  INFO node::user:     Block Number: 23
2026-02-13T21:10:43.798521Z  INFO node::user:     Block Hash: 0x50924e13a9acc043b2533c3df00338e50d3fb7608d15f6d74dbf432f2d286a50
2026-02-13T21:10:43.798524Z  INFO node::user:     Block Time: "Fri, 13 Feb 2026 21:20:13 +0000"

2026-02-13T21:10:43.810984Z  INFO node::user: eth_chainId
2026-02-13T21:10:43.811014Z  INFO node::user: eth_getTransactionReceipt
2026-02-13T21:10:43.811095Z  INFO node::user: eth_call
2026-02-13T21:10:43.811109Z  INFO node::user: eth_chainId
2026-02-13T21:10:43.822860Z  INFO node::user: eth_getTransactionCount
2026-02-13T21:10:43.822890Z  INFO node::user: eth_chainId
2026-02-13T21:10:43.823141Z  INFO node::user: eth_call
2026-02-13T21:10:43.823165Z  INFO node::user: eth_chainId
2026-02-13T21:10:43.834631Z  INFO node::user: eth_estimateGas
2026-02-13T21:10:43.846417Z  INFO node::user: eth_chainId
2026-02-13T21:10:43.857957Z  INFO node::user: eth_chainId
2026-02-13T21:10:43.869665Z  INFO node::user: eth_getBlockByNumber
2026-02-13T21:10:43.881609Z  INFO node::user: eth_sendRawTransaction
2026-02-13T21:10:43.881740Z  INFO node::user: eth_chainId
2026-02-13T21:10:43.881880Z  INFO node::user: 
2026-02-13T21:10:43.881886Z  INFO node::user:     Transaction: 0x079087e3309b9be1d9c9ca1205fc4aab76151596a4b7e4c82ae8443dd9084178
2026-02-13T21:10:43.881889Z  INFO node::user:     Gas used: 96197
2026-02-13T21:10:43.881891Z  INFO node::user: 
2026-02-13T21:10:43.881893Z  INFO node::user:     Block Number: 24
2026-02-13T21:10:43.881895Z  INFO node::user:     Block Hash: 0x9bff8847185e568b94cf81eecfbb924fae6dcd70852c9af41a9162acc70f768d
2026-02-13T21:10:43.881897Z  INFO node::user:     Block Time: "Fri, 13 Feb 2026 21:20:13 +0000"

2026-02-13T21:10:43.893964Z  INFO node::user: eth_chainId
2026-02-13T21:10:43.893987Z  INFO node::user: eth_getTransactionReceipt
2026-02-13T21:10:43.894046Z  INFO node::user: eth_call
2026-02-13T21:10:43.894062Z  INFO node::user: eth_chainId
2026-02-13T21:10:43.905320Z  INFO node::user: eth_call
2026-02-13T21:10:43.905351Z  INFO node::user: eth_chainId
2026-02-13T21:10:43.905712Z  INFO node::user: eth_getTransactionCount
2026-02-13T21:10:43.905733Z  INFO node::user: eth_chainId
2026-02-13T21:10:43.917318Z  INFO node::user: eth_estimateGas
2026-02-13T21:10:43.928883Z  INFO node::user: eth_chainId
2026-02-13T21:10:43.939390Z  INFO node::user: eth_chainId
2026-02-13T21:10:43.951039Z  INFO node::user: eth_gasPrice
2026-02-13T21:10:43.951065Z  INFO node::user: eth_maxPriorityFeePerGas
2026-02-13T21:10:43.963041Z  INFO node::user: eth_blockNumber
2026-02-13T21:10:43.963060Z  INFO node::user: eth_sendRawTransaction
2026-02-13T21:10:43.963180Z  INFO node::user: eth_chainId
2026-02-13T21:10:43.963362Z  INFO node::user: 
2026-02-13T21:10:43.963370Z  INFO node::user:     Transaction: 0x40c5d1e0af02a25737775f8426321ab389cf249544ebe355523b4d86e47273da
2026-02-13T21:10:43.963374Z  INFO node::user:     Gas used: 79097
2026-02-13T21:10:43.963376Z  INFO node::user: 
2026-02-13T21:10:43.963379Z  INFO node::user:     Block Number: 25
2026-02-13T21:10:43.963381Z  INFO node::user:     Block Hash: 0xeff78d462302ed941878bf708c063beefb30e84c037e14414b0cd59a69510467
2026-02-13T21:10:43.963384Z  INFO node::user:     Block Time: "Fri, 13 Feb 2026 21:20:13 +0000"

2026-02-13T21:10:43.975649Z  INFO node::user: eth_call
2026-02-13T21:10:43.975682Z  INFO node::user: eth_chainId
2026-02-13T21:10:43.976116Z  INFO node::user: eth_chainId
2026-02-13T21:10:43.976127Z  INFO node::user: eth_getTransactionReceipt
2026-02-13T21:10:43.987672Z  INFO node::user: eth_call
2026-02-13T21:10:43.987708Z  INFO node::user: eth_chainId
2026-02-13T21:10:43.988280Z  INFO node::user: eth_estimateGas
2026-02-13T21:10:43.999411Z  INFO node::user: eth_chainId
2026-02-13T21:10:44.011083Z  INFO node::user: eth_chainId
2026-02-13T21:10:44.023290Z  INFO node::user: eth_sendRawTransaction
2026-02-13T21:10:44.023437Z  INFO node::user: eth_chainId
2026-02-13T21:10:44.023650Z  INFO node::user: 
2026-02-13T21:10:44.023654Z  INFO node::user:     Transaction: 0x7d78c8db2b13288c6331b436003a5760041d3d746d04226fc736bed5b42f64e6
2026-02-13T21:10:44.023657Z  INFO node::user:     Gas used: 232805
2026-02-13T21:10:44.023660Z  INFO node::user: 
2026-02-13T21:10:44.023663Z  INFO node::user:     Block Number: 26
2026-02-13T21:10:44.023665Z  INFO node::user:     Block Hash: 0x66a0243ce105db200d93b571183cf6f53fa6ad04b483cb6d20ef2431317f4ada
2026-02-13T21:10:44.023668Z  INFO node::user:     Block Time: "Fri, 13 Feb 2026 21:20:14 +0000"

2026-02-13T21:10:44.035879Z  INFO node::user: eth_call
2026-02-13T21:10:44.035915Z  INFO node::user: eth_chainId
2026-02-13T21:10:44.036073Z  INFO node::user: eth_chainId
2026-02-13T21:10:44.036082Z  INFO node::user: eth_getTransactionReceipt
2026-02-13T21:10:44.048003Z  INFO node::user: eth_call
2026-02-13T21:10:44.048032Z  INFO node::user: eth_chainId
2026-02-13T21:10:44.048661Z  INFO node::user: eth_getTransactionCount
2026-02-13T21:10:44.048675Z  INFO node::user: eth_chainId
2026-02-13T21:10:44.060616Z  INFO node::user: eth_estimateGas
2026-02-13T21:10:44.071502Z  INFO node::user: eth_chainId
2026-02-13T21:10:44.081558Z  INFO node::user: eth_chainId
2026-02-13T21:10:44.093599Z  INFO node::user: eth_sendRawTransaction
2026-02-13T21:10:44.093810Z  INFO node::user: eth_chainId
2026-02-13T21:10:44.094165Z  INFO node::user: 
2026-02-13T21:10:44.094175Z  INFO node::user:     Transaction: 0x4c7eabb17e7e98415f54562c64e2c26368c01c3a9ed9bbc798d105c6f10cd947
2026-02-13T21:10:44.094179Z  INFO node::user:     Gas used: 96197
2026-02-13T21:10:44.094182Z  INFO node::user: 
2026-02-13T21:10:44.094186Z  INFO node::user:     Block Number: 27
2026-02-13T21:10:44.094190Z  INFO node::user:     Block Hash: 0x486f2803891414b214c19923523d72159efda11119aecf1c1de6b557b5eb8810
2026-02-13T21:10:44.094193Z  INFO node::user:     Block Time: "Fri, 13 Feb 2026 21:20:14 +0000"

2026-02-13T21:10:44.106173Z  INFO node::user: eth_call
2026-02-13T21:10:44.106204Z  INFO node::user: eth_chainId
2026-02-13T21:10:44.107321Z  INFO node::user: eth_chainId
2026-02-13T21:10:44.107331Z  INFO node::user: eth_getTransactionReceipt
2026-02-13T21:10:44.118310Z  INFO node::user: eth_call
2026-02-13T21:10:44.118335Z  INFO node::user: eth_chainId
